{
  "_format": "hh-sol-artifact-1",
  "contractName": "NFTClase",
  "sourceName": "contracts/NFTContract.sol",
  "abi": [
    {
      "inputs": [],
      "stateMutability": "nonpayable",
      "type": "constructor"
    },
    {
      "anonymous": false,
      "inputs": [
        {
          "indexed": true,
          "internalType": "address",
          "name": "owner",
          "type": "address"
        },
        {
          "indexed": true,
          "internalType": "address",
          "name": "approved",
          "type": "address"
        },
        {
          "indexed": true,
          "internalType": "uint256",
          "name": "tokenId",
          "type": "uint256"
        }
      ],
      "name": "Approval",
      "type": "event"
    },
    {
      "anonymous": false,
      "inputs": [
        {
          "indexed": true,
          "internalType": "address",
          "name": "owner",
          "type": "address"
        },
        {
          "indexed": true,
          "internalType": "address",
          "name": "operator",
          "type": "address"
        },
        {
          "indexed": false,
          "internalType": "bool",
          "name": "approved",
          "type": "bool"
        }
      ],
      "name": "ApprovalForAll",
      "type": "event"
    },
    {
      "anonymous": false,
      "inputs": [
        {
          "indexed": false,
          "internalType": "string",
          "name": "baseURI",
          "type": "string"
        }
      ],
      "name": "BaseURIUpdated",
      "type": "event"
    },
    {
      "anonymous": false,
      "inputs": [
        {
          "indexed": false,
          "internalType": "address",
          "name": "recipient",
          "type": "address"
        },
        {
          "indexed": false,
          "internalType": "uint256",
          "name": "tokenId",
          "type": "uint256"
        },
        {
          "indexed": false,
          "internalType": "string",
          "name": "tokenURI",
          "type": "string"
        }
      ],
      "name": "MintedNFT",
      "type": "event"
    },
    {
      "anonymous": false,
      "inputs": [
        {
          "indexed": true,
          "internalType": "address",
          "name": "previousOwner",
          "type": "address"
        },
        {
          "indexed": true,
          "internalType": "address",
          "name": "newOwner",
          "type": "address"
        }
      ],
      "name": "OwnershipTransferred",
      "type": "event"
    },
    {
      "anonymous": false,
      "inputs": [
        {
          "indexed": true,
          "internalType": "address",
          "name": "from",
          "type": "address"
        },
        {
          "indexed": true,
          "internalType": "address",
          "name": "to",
          "type": "address"
        },
        {
          "indexed": true,
          "internalType": "uint256",
          "name": "tokenId",
          "type": "uint256"
        }
      ],
      "name": "Transfer",
      "type": "event"
    },
    {
      "inputs": [
        {
          "internalType": "address",
          "name": "to",
          "type": "address"
        },
        {
          "internalType": "uint256",
          "name": "tokenId",
          "type": "uint256"
        }
      ],
      "name": "approve",
      "outputs": [],
      "stateMutability": "nonpayable",
      "type": "function"
    },
    {
      "inputs": [
        {
          "internalType": "address",
          "name": "owner",
          "type": "address"
        }
      ],
      "name": "balanceOf",
      "outputs": [
        {
          "internalType": "uint256",
          "name": "",
          "type": "uint256"
        }
      ],
      "stateMutability": "view",
      "type": "function"
    },
    {
      "inputs": [
        {
          "internalType": "uint256",
          "name": "tokenId",
          "type": "uint256"
        }
      ],
      "name": "getApproved",
      "outputs": [
        {
          "internalType": "address",
          "name": "",
          "type": "address"
        }
      ],
      "stateMutability": "view",
      "type": "function"
    },
    {
      "inputs": [
        {
          "internalType": "address",
          "name": "owner",
          "type": "address"
        },
        {
          "internalType": "address",
          "name": "operator",
          "type": "address"
        }
      ],
      "name": "isApprovedForAll",
      "outputs": [
        {
          "internalType": "bool",
          "name": "",
          "type": "bool"
        }
      ],
      "stateMutability": "view",
      "type": "function"
    },
    {
      "inputs": [
        {
          "internalType": "address",
          "name": "recipient",
          "type": "address"
        },
        {
          "internalType": "string",
          "name": "_tokenURI",
          "type": "string"
        }
      ],
      "name": "mintNFT",
      "outputs": [
        {
          "internalType": "uint256",
          "name": "",
          "type": "uint256"
        }
      ],
      "stateMutability": "nonpayable",
      "type": "function"
    },
    {
      "inputs": [],
      "name": "name",
      "outputs": [
        {
          "internalType": "string",
          "name": "",
          "type": "string"
        }
      ],
      "stateMutability": "view",
      "type": "function"
    },
    {
      "inputs": [],
      "name": "owner",
      "outputs": [
        {
          "internalType": "address",
          "name": "",
          "type": "address"
        }
      ],
      "stateMutability": "view",
      "type": "function"
    },
    {
      "inputs": [
        {
          "internalType": "uint256",
          "name": "tokenId",
          "type": "uint256"
        }
      ],
      "name": "ownerOf",
      "outputs": [
        {
          "internalType": "address",
          "name": "",
          "type": "address"
        }
      ],
      "stateMutability": "view",
      "type": "function"
    },
    {
      "inputs": [],
      "name": "renounceOwnership",
      "outputs": [],
      "stateMutability": "nonpayable",
      "type": "function"
    },
    {
      "inputs": [
        {
          "internalType": "address",
          "name": "from",
          "type": "address"
        },
        {
          "internalType": "address",
          "name": "to",
          "type": "address"
        },
        {
          "internalType": "uint256",
          "name": "tokenId",
          "type": "uint256"
        }
      ],
      "name": "safeTransferFrom",
      "outputs": [],
      "stateMutability": "nonpayable",
      "type": "function"
    },
    {
      "inputs": [
        {
          "internalType": "address",
          "name": "from",
          "type": "address"
        },
        {
          "internalType": "address",
          "name": "to",
          "type": "address"
        },
        {
          "internalType": "uint256",
          "name": "tokenId",
          "type": "uint256"
        },
        {
          "internalType": "bytes",
          "name": "data",
          "type": "bytes"
        }
      ],
      "name": "safeTransferFrom",
      "outputs": [],
      "stateMutability": "nonpayable",
      "type": "function"
    },
    {
      "inputs": [
        {
          "internalType": "address",
          "name": "operator",
          "type": "address"
        },
        {
          "internalType": "bool",
          "name": "approved",
          "type": "bool"
        }
      ],
      "name": "setApprovalForAll",
      "outputs": [],
      "stateMutability": "nonpayable",
      "type": "function"
    },
    {
      "inputs": [
        {
          "internalType": "string",
          "name": "baseUri",
          "type": "string"
        }
      ],
      "name": "setBaseUri",
      "outputs": [],
      "stateMutability": "nonpayable",
      "type": "function"
    },
    {
      "inputs": [
        {
          "internalType": "bytes4",
          "name": "interfaceId",
          "type": "bytes4"
        }
      ],
      "name": "supportsInterface",
      "outputs": [
        {
          "internalType": "bool",
          "name": "",
          "type": "bool"
        }
      ],
      "stateMutability": "view",
      "type": "function"
    },
    {
      "inputs": [],
      "name": "symbol",
      "outputs": [
        {
          "internalType": "string",
          "name": "",
          "type": "string"
        }
      ],
      "stateMutability": "view",
      "type": "function"
    },
    {
      "inputs": [
        {
          "internalType": "uint256",
          "name": "tokenId",
          "type": "uint256"
        }
      ],
      "name": "tokenURI",
      "outputs": [
        {
          "internalType": "string",
          "name": "",
          "type": "string"
        }
      ],
      "stateMutability": "view",
      "type": "function"
    },
    {
      "inputs": [
        {
          "internalType": "address",
          "name": "from",
          "type": "address"
        },
        {
          "internalType": "address",
          "name": "to",
          "type": "address"
        },
        {
          "internalType": "uint256",
          "name": "tokenId",
          "type": "uint256"
        }
      ],
      "name": "transferFrom",
      "outputs": [],
      "stateMutability": "nonpayable",
      "type": "function"
    },
    {
      "inputs": [
        {
          "internalType": "address",
          "name": "newOwner",
          "type": "address"
        }
      ],
      "name": "transferOwnership",
      "outputs": [],
      "stateMutability": "nonpayable",
      "type": "function"
    }
  ],
  "bytecode": "0x60806040523480156200001157600080fd5b506040518060400160405280600881526020017f4e4654436c6173650000000000000000000000000000000000000000000000008152506040518060400160405280600481526020017f4e4654430000000000000000000000000000000000000000000000000000000081525081600090816200008f919062000412565b508060019081620000a1919062000412565b505050620000c4620000b8620000ca60201b60201c565b620000d260201b60201c565b620004f9565b600033905090565b6000600660009054906101000a900473ffffffffffffffffffffffffffffffffffffffff16905081600660006101000a81548173ffffffffffffffffffffffffffffffffffffffff021916908373ffffffffffffffffffffffffffffffffffffffff1602179055508173ffffffffffffffffffffffffffffffffffffffff168173ffffffffffffffffffffffffffffffffffffffff167f8be0079c531659141344cd1fd0a4f28419497f9722a3daafe3b4186f6b6457e060405160405180910390a35050565b600081519050919050565b7f4e487b7100000000000000000000000000000000000000000000000000000000600052604160045260246000fd5b7f4e487b7100000000000000000000000000000000000000000000000000000000600052602260045260246000fd5b600060028204905060018216806200021a57607f821691505b60208210810362000230576200022f620001d2565b5b50919050565b60008190508160005260206000209050919050565b60006020601f8301049050919050565b600082821b905092915050565b6000600883026200029a7fffffffffffffffffffffffffffffffffffffffffffffffffffffffffffffffff826200025b565b620002a686836200025b565b95508019841693508086168417925050509392505050565b6000819050919050565b6000819050919050565b6000620002f3620002ed620002e784620002be565b620002c8565b620002be565b9050919050565b6000819050919050565b6200030f83620002d2565b620003276200031e82620002fa565b84845462000268565b825550505050565b600090565b6200033e6200032f565b6200034b81848462000304565b505050565b5b8181101562000373576200036760008262000334565b60018101905062000351565b5050565b601f821115620003c2576200038c8162000236565b62000397846200024b565b81016020851015620003a7578190505b620003bf620003b6856200024b565b83018262000350565b50505b505050565b600082821c905092915050565b6000620003e760001984600802620003c7565b1980831691505092915050565b6000620004028383620003d4565b9150826002028217905092915050565b6200041d8262000198565b67ffffffffffffffff811115620004395762000438620001a3565b5b62000445825462000201565b6200045282828562000377565b600060209050601f8311600181146200048a576000841562000475578287015190505b620004818582620003f4565b865550620004f1565b601f1984166200049a8662000236565b60005b82811015620004c4578489015182556001820191506020850194506020810190506200049d565b86831015620004e45784890151620004e0601f891682620003d4565b8355505b6001600288020188555050505b505050505050565b61302d80620005096000396000f3fe608060405234801561001057600080fd5b50600436106101165760003560e01c80638da5cb5b116100a2578063b88d4fde11610071578063b88d4fde146102cb578063c87b56dd146102e7578063e985e9c514610317578063eacabe1414610347578063f2fde38b1461037757610116565b80638da5cb5b1461025757806395d89b4114610275578063a0bcfc7f14610293578063a22cb465146102af57610116565b806323b872dd116100e957806323b872dd146101b557806342842e0e146101d15780636352211e146101ed57806370a082311461021d578063715018a61461024d57610116565b806301ffc9a71461011b57806306fdde031461014b578063081812fc14610169578063095ea7b314610199575b600080fd5b61013560048036038101906101309190611c99565b610393565b6040516101429190611ce1565b60405180910390f35b610153610475565b6040516101609190611d8c565b60405180910390f35b610183600480360381019061017e9190611de4565b610507565b6040516101909190611e52565b60405180910390f35b6101b360048036038101906101ae9190611e99565b61054d565b005b6101cf60048036038101906101ca9190611ed9565b610664565b005b6101eb60048036038101906101e69190611ed9565b6106c4565b005b61020760048036038101906102029190611de4565b6106e4565b6040516102149190611e52565b60405180910390f35b61023760048036038101906102329190611f2c565b61076a565b6040516102449190611f68565b60405180910390f35b610255610821565b005b61025f610835565b60405161026c9190611e52565b60405180910390f35b61027d61085f565b60405161028a9190611d8c565b60405180910390f35b6102ad60048036038101906102a891906120b8565b6108f1565b005b6102c960048036038101906102c4919061212d565b610943565b005b6102e560048036038101906102e0919061220e565b610959565b005b61030160048036038101906102fc9190611de4565b6109bb565b60405161030e9190611d8c565b60405180910390f35b610331600480360381019061032c9190612291565b610b2d565b60405161033e9190611ce1565b60405180910390f35b610361600480360381019061035c91906122d1565b610bc1565b60405161036e9190611f68565b60405180910390f35b610391600480360381019061038c9190611f2c565b610c80565b005b60007f80ac58cd000000000000000000000000000000000000000000000000000000007bffffffffffffffffffffffffffffffffffffffffffffffffffffffff1916827bffffffffffffffffffffffffffffffffffffffffffffffffffffffff1916148061045e57507f5b5e139f000000000000000000000000000000000000000000000000000000007bffffffffffffffffffffffffffffffffffffffffffffffffffffffff1916827bffffffffffffffffffffffffffffffffffffffffffffffffffffffff1916145b8061046e575061046d82610d03565b5b9050919050565b6060600080546104849061235c565b80601f01602080910402602001604051908101604052809291908181526020018280546104b09061235c565b80156104fd5780601f106104d2576101008083540402835291602001916104fd565b820191906000526020600020905b8154815290600101906020018083116104e057829003601f168201915b5050505050905090565b600061051282610d6d565b6004600083815260200190815260200160002060009054906101000a900473ffffffffffffffffffffffffffffffffffffffff169050919050565b6000610558826106e4565b90508073ffffffffffffffffffffffffffffffffffffffff168373ffffffffffffffffffffffffffffffffffffffff16036105c8576040517f08c379a00000000000000000000000000000000000000000000000000000000081526004016105bf906123ff565b60405180910390fd5b8073ffffffffffffffffffffffffffffffffffffffff166105e7610db8565b73ffffffffffffffffffffffffffffffffffffffff161480610616575061061581610610610db8565b610b2d565b5b610655576040517f08c379a000000000000000000000000000000000000000000000000000000000815260040161064c90612491565b60405180910390fd5b61065f8383610dc0565b505050565b61067561066f610db8565b82610e79565b6106b4576040517f08c379a00000000000000000000000000000000000000000000000000000000081526004016106ab90612523565b60405180910390fd5b6106bf838383610f0e565b505050565b6106df83838360405180602001604052806000815250610959565b505050565b6000806106f083611207565b9050600073ffffffffffffffffffffffffffffffffffffffff168173ffffffffffffffffffffffffffffffffffffffff1603610761576040517f08c379a00000000000000000000000000000000000000000000000000000000081526004016107589061258f565b60405180910390fd5b80915050919050565b60008073ffffffffffffffffffffffffffffffffffffffff168273ffffffffffffffffffffffffffffffffffffffff16036107da576040517f08c379a00000000000000000000000000000000000000000000000000000000081526004016107d190612621565b60405180910390fd5b600360008373ffffffffffffffffffffffffffffffffffffffff1673ffffffffffffffffffffffffffffffffffffffff168152602001908152602001600020549050919050565b610829611244565b61083360006112c2565b565b6000600660009054906101000a900473ffffffffffffffffffffffffffffffffffffffff16905090565b60606001805461086e9061235c565b80601f016020809104026020016040519081016040528092919081815260200182805461089a9061235c565b80156108e75780601f106108bc576101008083540402835291602001916108e7565b820191906000526020600020905b8154815290600101906020018083116108ca57829003601f168201915b5050505050905090565b6108f9611244565b806009908161090891906127ed565b507f6741b2fc379fad678116fe3d4d4b9a1a184ab53ba36b86ad0fa66340b1ab41ad816040516109389190611d8c565b60405180910390a150565b61095561094e610db8565b8383611388565b5050565b61096a610964610db8565b83610e79565b6109a9576040517f08c379a00000000000000000000000000000000000000000000000000000000081526004016109a090612523565b60405180910390fd5b6109b5848484846114f4565b50505050565b60606109c682611550565b610a05576040517f08c379a00000000000000000000000000000000000000000000000000000000081526004016109fc90612931565b60405180910390fd5b6000600860008481526020019081526020016000208054610a259061235c565b80601f0160208091040260200160405190810160405280929190818152602001828054610a519061235c565b8015610a9e5780601f10610a7357610100808354040283529160200191610a9e565b820191906000526020600020905b815481529060010190602001808311610a8157829003601f168201915b505050505090506000610aaf611591565b90506000815103610ac4578192505050610b28565b600082511115610af9578082604051602001610ae192919061298d565b60405160208183030381529060405292505050610b28565b80610b03856115a8565b604051602001610b1492919061298d565b604051602081830303815290604052925050505b919050565b6000600560008473ffffffffffffffffffffffffffffffffffffffff1673ffffffffffffffffffffffffffffffffffffffff16815260200190815260200160002060008373ffffffffffffffffffffffffffffffffffffffff1673ffffffffffffffffffffffffffffffffffffffff16815260200190815260200160002060009054906101000a900460ff16905092915050565b6000610bcb611244565b6000825111610c0f576040517f08c379a0000000000000000000000000000000000000000000000000000000008152600401610c06906129fd565b60405180910390fd5b610c196007611676565b6000610c25600761168c565b9050610c31848261169a565b610c3b81846118b7565b7f9f0432214927ca5d54e705bee45cb45cd0b88d9c6bc15906cc3498feb1d81310848285604051610c6e93929190612a1d565b60405180910390a18091505092915050565b610c88611244565b600073ffffffffffffffffffffffffffffffffffffffff168173ffffffffffffffffffffffffffffffffffffffff1603610cf7576040517f08c379a0000000000000000000000000000000000000000000000000000000008152600401610cee90612acd565b60405180910390fd5b610d00816112c2565b50565b60007f01ffc9a7000000000000000000000000000000000000000000000000000000007bffffffffffffffffffffffffffffffffffffffffffffffffffffffff1916827bffffffffffffffffffffffffffffffffffffffffffffffffffffffff1916149050919050565b610d7681611550565b610db5576040517f08c379a0000000000000000000000000000000000000000000000000000000008152600401610dac9061258f565b60405180910390fd5b50565b600033905090565b816004600083815260200190815260200160002060006101000a81548173ffffffffffffffffffffffffffffffffffffffff021916908373ffffffffffffffffffffffffffffffffffffffff160217905550808273ffffffffffffffffffffffffffffffffffffffff16610e33836106e4565b73ffffffffffffffffffffffffffffffffffffffff167f8c5be1e5ebec7d5bd14f71427d1e84f3dd0314c0f7b2291e5b200ac8c7c3b92560405160405180910390a45050565b600080610e85836106e4565b90508073ffffffffffffffffffffffffffffffffffffffff168473ffffffffffffffffffffffffffffffffffffffff161480610ec75750610ec68185610b2d565b5b80610f0557508373ffffffffffffffffffffffffffffffffffffffff16610eed84610507565b73ffffffffffffffffffffffffffffffffffffffff16145b91505092915050565b8273ffffffffffffffffffffffffffffffffffffffff16610f2e826106e4565b73ffffffffffffffffffffffffffffffffffffffff1614610f84576040517f08c379a0000000000000000000000000000000000000000000000000000000008152600401610f7b90612b5f565b60405180910390fd5b600073ffffffffffffffffffffffffffffffffffffffff168273ffffffffffffffffffffffffffffffffffffffff1603610ff3576040517f08c379a0000000000000000000000000000000000000000000000000000000008152600401610fea90612bf1565b60405180910390fd5b6110008383836001611924565b8273ffffffffffffffffffffffffffffffffffffffff16611020826106e4565b73ffffffffffffffffffffffffffffffffffffffff1614611076576040517f08c379a000000000000000000000000000000000000000000000000000000000815260040161106d90612b5f565b60405180910390fd5b6004600082815260200190815260200160002060006101000a81549073ffffffffffffffffffffffffffffffffffffffff02191690556001600360008573ffffffffffffffffffffffffffffffffffffffff1673ffffffffffffffffffffffffffffffffffffffff168152602001908152602001600020600082825403925050819055506001600360008473ffffffffffffffffffffffffffffffffffffffff1673ffffffffffffffffffffffffffffffffffffffff16815260200190815260200160002060008282540192505081905550816002600083815260200190815260200160002060006101000a81548173ffffffffffffffffffffffffffffffffffffffff021916908373ffffffffffffffffffffffffffffffffffffffff160217905550808273ffffffffffffffffffffffffffffffffffffffff168473ffffffffffffffffffffffffffffffffffffffff167fddf252ad1be2c89b69c2b068fc378daa952ba7f163c4a11628f55a4df523b3ef60405160405180910390a4611202838383600161192a565b505050565b60006002600083815260200190815260200160002060009054906101000a900473ffffffffffffffffffffffffffffffffffffffff169050919050565b61124c610db8565b73ffffffffffffffffffffffffffffffffffffffff1661126a610835565b73ffffffffffffffffffffffffffffffffffffffff16146112c0576040517f08c379a00000000000000000000000000000000000000000000000000000000081526004016112b790612c5d565b60405180910390fd5b565b6000600660009054906101000a900473ffffffffffffffffffffffffffffffffffffffff16905081600660006101000a81548173ffffffffffffffffffffffffffffffffffffffff021916908373ffffffffffffffffffffffffffffffffffffffff1602179055508173ffffffffffffffffffffffffffffffffffffffff168173ffffffffffffffffffffffffffffffffffffffff167f8be0079c531659141344cd1fd0a4f28419497f9722a3daafe3b4186f6b6457e060405160405180910390a35050565b8173ffffffffffffffffffffffffffffffffffffffff168373ffffffffffffffffffffffffffffffffffffffff16036113f6576040517f08c379a00000000000000000000000000000000000000000000000000000000081526004016113ed90612cc9565b60405180910390fd5b80600560008573ffffffffffffffffffffffffffffffffffffffff1673ffffffffffffffffffffffffffffffffffffffff16815260200190815260200160002060008473ffffffffffffffffffffffffffffffffffffffff1673ffffffffffffffffffffffffffffffffffffffff16815260200190815260200160002060006101000a81548160ff0219169083151502179055508173ffffffffffffffffffffffffffffffffffffffff168373ffffffffffffffffffffffffffffffffffffffff167f17307eab39ab6107e8899845ad3d59bd9653f200f220920489ca2b5937696c31836040516114e79190611ce1565b60405180910390a3505050565b6114ff848484610f0e565b61150b84848484611930565b61154a576040517f08c379a000000000000000000000000000000000000000000000000000000000815260040161154190612d5b565b60405180910390fd5b50505050565b60008073ffffffffffffffffffffffffffffffffffffffff1661157283611207565b73ffffffffffffffffffffffffffffffffffffffff1614159050919050565b606060405180602001604052806000815250905090565b6060600060016115b784611ab7565b01905060008167ffffffffffffffff8111156115d6576115d5611f8d565b5b6040519080825280601f01601f1916602001820160405280156116085781602001600182028036833780820191505090505b509050600082602001820190505b60011561166b578080600190039150507f3031323334353637383961626364656600000000000000000000000000000000600a86061a8153600a858161165f5761165e612d7b565b5b04945060008503611616575b819350505050919050565b6001816000016000828254019250508190555050565b600081600001549050919050565b600073ffffffffffffffffffffffffffffffffffffffff168273ffffffffffffffffffffffffffffffffffffffff1603611709576040517f08c379a000000000000000000000000000000000000000000000000000000000815260040161170090612df6565b60405180910390fd5b61171281611550565b15611752576040517f08c379a000000000000000000000000000000000000000000000000000000000815260040161174990612e62565b60405180910390fd5b611760600083836001611924565b61176981611550565b156117a9576040517f08c379a00000000000000000000000000000000000000000000000000000000081526004016117a090612e62565b60405180910390fd5b6001600360008473ffffffffffffffffffffffffffffffffffffffff1673ffffffffffffffffffffffffffffffffffffffff16815260200190815260200160002060008282540192505081905550816002600083815260200190815260200160002060006101000a81548173ffffffffffffffffffffffffffffffffffffffff021916908373ffffffffffffffffffffffffffffffffffffffff160217905550808273ffffffffffffffffffffffffffffffffffffffff16600073ffffffffffffffffffffffffffffffffffffffff167fddf252ad1be2c89b69c2b068fc378daa952ba7f163c4a11628f55a4df523b3ef60405160405180910390a46118b360008383600161192a565b5050565b6118c082611550565b6118ff576040517f08c379a00000000000000000000000000000000000000000000000000000000081526004016118f690612ef4565b60405180910390fd5b8060086000848152602001908152602001600020908161191f91906127ed565b505050565b50505050565b50505050565b60006119518473ffffffffffffffffffffffffffffffffffffffff16611c0a565b15611aaa578373ffffffffffffffffffffffffffffffffffffffff1663150b7a0261197a610db8565b8786866040518563ffffffff1660e01b815260040161199c9493929190612f69565b6020604051808303816000875af19250505080156119d857506040513d601f19601f820116820180604052508101906119d59190612fca565b60015b611a5a573d8060008114611a08576040519150601f19603f3d011682016040523d82523d6000602084013e611a0d565b606091505b506000815103611a52576040517f08c379a0000000000000000000000000000000000000000000000000000000008152600401611a4990612d5b565b60405180910390fd5b805181602001fd5b63150b7a0260e01b7bffffffffffffffffffffffffffffffffffffffffffffffffffffffff1916817bffffffffffffffffffffffffffffffffffffffffffffffffffffffff191614915050611aaf565b600190505b949350505050565b600080600090507a184f03e93ff9f4daa797ed6e38ed64bf6a1f0100000000000000008310611b15577a184f03e93ff9f4daa797ed6e38ed64bf6a1f0100000000000000008381611b0b57611b0a612d7b565b5b0492506040810190505b6d04ee2d6d415b85acef81000000008310611b52576d04ee2d6d415b85acef81000000008381611b4857611b47612d7b565b5b0492506020810190505b662386f26fc100008310611b8157662386f26fc100008381611b7757611b76612d7b565b5b0492506010810190505b6305f5e1008310611baa576305f5e1008381611ba057611b9f612d7b565b5b0492506008810190505b6127108310611bcf576127108381611bc557611bc4612d7b565b5b0492506004810190505b60648310611bf25760648381611be857611be7612d7b565b5b0492506002810190505b600a8310611c01576001810190505b80915050919050565b6000808273ffffffffffffffffffffffffffffffffffffffff163b119050919050565b6000604051905090565b600080fd5b600080fd5b60007fffffffff0000000000000000000000000000000000000000000000000000000082169050919050565b611c7681611c41565b8114611c8157600080fd5b50565b600081359050611c9381611c6d565b92915050565b600060208284031215611caf57611cae611c37565b5b6000611cbd84828501611c84565b91505092915050565b60008115159050919050565b611cdb81611cc6565b82525050565b6000602082019050611cf66000830184611cd2565b92915050565b600081519050919050565b600082825260208201905092915050565b60005b83811015611d36578082015181840152602081019050611d1b565b60008484015250505050565b6000601f19601f8301169050919050565b6000611d5e82611cfc565b611d688185611d07565b9350611d78818560208601611d18565b611d8181611d42565b840191505092915050565b60006020820190508181036000830152611da68184611d53565b905092915050565b6000819050919050565b611dc181611dae565b8114611dcc57600080fd5b50565b600081359050611dde81611db8565b92915050565b600060208284031215611dfa57611df9611c37565b5b6000611e0884828501611dcf565b91505092915050565b600073ffffffffffffffffffffffffffffffffffffffff82169050919050565b6000611e3c82611e11565b9050919050565b611e4c81611e31565b82525050565b6000602082019050611e676000830184611e43565b92915050565b611e7681611e31565b8114611e8157600080fd5b50565b600081359050611e9381611e6d565b92915050565b60008060408385031215611eb057611eaf611c37565b5b6000611ebe85828601611e84565b9250506020611ecf85828601611dcf565b9150509250929050565b600080600060608486031215611ef257611ef1611c37565b5b6000611f0086828701611e84565b9350506020611f1186828701611e84565b9250506040611f2286828701611dcf565b9150509250925092565b600060208284031215611f4257611f41611c37565b5b6000611f5084828501611e84565b91505092915050565b611f6281611dae565b82525050565b6000602082019050611f7d6000830184611f59565b92915050565b600080fd5b600080fd5b7f4e487b7100000000000000000000000000000000000000000000000000000000600052604160045260246000fd5b611fc582611d42565b810181811067ffffffffffffffff82111715611fe457611fe3611f8d565b5b80604052505050565b6000611ff7611c2d565b90506120038282611fbc565b919050565b600067ffffffffffffffff82111561202357612022611f8d565b5b61202c82611d42565b9050602081019050919050565b82818337600083830152505050565b600061205b61205684612008565b611fed565b90508281526020810184848401111561207757612076611f88565b5b612082848285612039565b509392505050565b600082601f83011261209f5761209e611f83565b5b81356120af848260208601612048565b91505092915050565b6000602082840312156120ce576120cd611c37565b5b600082013567ffffffffffffffff8111156120ec576120eb611c3c565b5b6120f88482850161208a565b91505092915050565b61210a81611cc6565b811461211557600080fd5b50565b60008135905061212781612101565b92915050565b6000806040838503121561214457612143611c37565b5b600061215285828601611e84565b925050602061216385828601612118565b9150509250929050565b600067ffffffffffffffff82111561218857612187611f8d565b5b61219182611d42565b9050602081019050919050565b60006121b16121ac8461216d565b611fed565b9050828152602081018484840111156121cd576121cc611f88565b5b6121d8848285612039565b509392505050565b600082601f8301126121f5576121f4611f83565b5b813561220584826020860161219e565b91505092915050565b6000806000806080858703121561222857612227611c37565b5b600061223687828801611e84565b945050602061224787828801611e84565b935050604061225887828801611dcf565b925050606085013567ffffffffffffffff81111561227957612278611c3c565b5b612285878288016121e0565b91505092959194509250565b600080604083850312156122a8576122a7611c37565b5b60006122b685828601611e84565b92505060206122c785828601611e84565b9150509250929050565b600080604083850312156122e8576122e7611c37565b5b60006122f685828601611e84565b925050602083013567ffffffffffffffff81111561231757612316611c3c565b5b6123238582860161208a565b9150509250929050565b7f4e487b7100000000000000000000000000000000000000000000000000000000600052602260045260246000fd5b6000600282049050600182168061237457607f821691505b6020821081036123875761238661232d565b5b50919050565b7f4552433732313a20617070726f76616c20746f2063757272656e74206f776e6560008201527f7200000000000000000000000000000000000000000000000000000000000000602082015250565b60006123e9602183611d07565b91506123f48261238d565b604082019050919050565b60006020820190508181036000830152612418816123dc565b9050919050565b7f4552433732313a20617070726f76652063616c6c6572206973206e6f7420746f60008201527f6b656e206f776e6572206f7220617070726f76656420666f7220616c6c000000602082015250565b600061247b603d83611d07565b91506124868261241f565b604082019050919050565b600060208201905081810360008301526124aa8161246e565b9050919050565b7f4552433732313a2063616c6c6572206973206e6f7420746f6b656e206f776e6560008201527f72206f7220617070726f76656400000000000000000000000000000000000000602082015250565b600061250d602d83611d07565b9150612518826124b1565b604082019050919050565b6000602082019050818103600083015261253c81612500565b9050919050565b7f4552433732313a20696e76616c696420746f6b656e2049440000000000000000600082015250565b6000612579601883611d07565b915061258482612543565b602082019050919050565b600060208201905081810360008301526125a88161256c565b9050919050565b7f4552433732313a2061646472657373207a65726f206973206e6f74206120766160008201527f6c6964206f776e65720000000000000000000000000000000000000000000000602082015250565b600061260b602983611d07565b9150612616826125af565b604082019050919050565b6000602082019050818103600083015261263a816125fe565b9050919050565b60008190508160005260206000209050919050565b60006020601f8301049050919050565b600082821b905092915050565b6000600883026126a37fffffffffffffffffffffffffffffffffffffffffffffffffffffffffffffffff82612666565b6126ad8683612666565b95508019841693508086168417925050509392505050565b6000819050919050565b60006126ea6126e56126e084611dae565b6126c5565b611dae565b9050919050565b6000819050919050565b612704836126cf565b612718612710826126f1565b848454612673565b825550505050565b600090565b61272d612720565b6127388184846126fb565b505050565b5b8181101561275c57612751600082612725565b60018101905061273e565b5050565b601f8211156127a15761277281612641565b61277b84612656565b8101602085101561278a578190505b61279e61279685612656565b83018261273d565b50505b505050565b600082821c905092915050565b60006127c4600019846008026127a6565b1980831691505092915050565b60006127dd83836127b3565b9150826002028217905092915050565b6127f682611cfc565b67ffffffffffffffff81111561280f5761280e611f8d565b5b612819825461235c565b612824828285612760565b600060209050601f8311600181146128575760008415612845578287015190505b61284f85826127d1565b8655506128b7565b601f19841661286586612641565b60005b8281101561288d57848901518255600182019150602085019450602081019050612868565b868310156128aa57848901516128a6601f8916826127b3565b8355505b6001600288020188555050505b505050505050565b7f4552433732314d657461646174613a2055524920717565727920666f72206e6f60008201527f6e6578697374656e7420746f6b656e0000000000000000000000000000000000602082015250565b600061291b602f83611d07565b9150612926826128bf565b604082019050919050565b6000602082019050818103600083015261294a8161290e565b9050919050565b600081905092915050565b600061296782611cfc565b6129718185612951565b9350612981818560208601611d18565b80840191505092915050565b6000612999828561295c565b91506129a5828461295c565b91508190509392505050565b7f546f6b656e205552492063616e6e6f7420626520656d70747900000000000000600082015250565b60006129e7601983611d07565b91506129f2826129b1565b602082019050919050565b60006020820190508181036000830152612a16816129da565b9050919050565b6000606082019050612a326000830186611e43565b612a3f6020830185611f59565b8181036040830152612a518184611d53565b9050949350505050565b7f4f776e61626c653a206e6577206f776e657220697320746865207a65726f206160008201527f6464726573730000000000000000000000000000000000000000000000000000602082015250565b6000612ab7602683611d07565b9150612ac282612a5b565b604082019050919050565b60006020820190508181036000830152612ae681612aaa565b9050919050565b7f4552433732313a207472616e736665722066726f6d20696e636f72726563742060008201527f6f776e6572000000000000000000000000000000000000000000000000000000602082015250565b6000612b49602583611d07565b9150612b5482612aed565b604082019050919050565b60006020820190508181036000830152612b7881612b3c565b9050919050565b7f4552433732313a207472616e7366657220746f20746865207a65726f2061646460008201527f7265737300000000000000000000000000000000000000000000000000000000602082015250565b6000612bdb602483611d07565b9150612be682612b7f565b604082019050919050565b60006020820190508181036000830152612c0a81612bce565b9050919050565b7f4f776e61626c653a2063616c6c6572206973206e6f7420746865206f776e6572600082015250565b6000612c47602083611d07565b9150612c5282612c11565b602082019050919050565b60006020820190508181036000830152612c7681612c3a565b9050919050565b7f4552433732313a20617070726f766520746f2063616c6c657200000000000000600082015250565b6000612cb3601983611d07565b9150612cbe82612c7d565b602082019050919050565b60006020820190508181036000830152612ce281612ca6565b9050919050565b7f4552433732313a207472616e7366657220746f206e6f6e20455243373231526560008201527f63656976657220696d706c656d656e7465720000000000000000000000000000602082015250565b6000612d45603283611d07565b9150612d5082612ce9565b604082019050919050565b60006020820190508181036000830152612d7481612d38565b9050919050565b7f4e487b7100000000000000000000000000000000000000000000000000000000600052601260045260246000fd5b7f4552433732313a206d696e7420746f20746865207a65726f2061646472657373600082015250565b6000612de0602083611d07565b9150612deb82612daa565b602082019050919050565b60006020820190508181036000830152612e0f81612dd3565b9050919050565b7f4552433732313a20746f6b656e20616c7265616479206d696e74656400000000600082015250565b6000612e4c601c83611d07565b9150612e5782612e16565b602082019050919050565b60006020820190508181036000830152612e7b81612e3f565b9050919050565b7f4552433732314d6574613a2055524920736574206f66206e6f6e65786973746560008201527f6e7420746f6b656e000000000000000000000000000000000000000000000000602082015250565b6000612ede602883611d07565b9150612ee982612e82565b604082019050919050565b60006020820190508181036000830152612f0d81612ed1565b9050919050565b600081519050919050565b600082825260208201905092915050565b6000612f3b82612f14565b612f458185612f1f565b9350612f55818560208601611d18565b612f5e81611d42565b840191505092915050565b6000608082019050612f7e6000830187611e43565b612f8b6020830186611e43565b612f986040830185611f59565b8181036060830152612faa8184612f30565b905095945050505050565b600081519050612fc481611c6d565b92915050565b600060208284031215612fe057612fdf611c37565b5b6000612fee84828501612fb5565b9150509291505056fea26469706673582212204d80dd9f2f7a042a4c21a7c1ab3e7f314f985811101a69bb75ed82591d6303b564736f6c63430008180033",
  "linkReferences": {},
  "deployedLinkReferences": {}
}