{
  "_format": "hh-sol-artifact-1",
  "contractName": "BookRegistry",
  "sourceName": "contracts/BookRegistry.sol",
  "abi": [
    {
      "anonymous": false,
      "inputs": [
        {
          "indexed": false,
          "internalType": "uint256",
          "name": "bookId",
          "type": "uint256"
        },
        {
          "indexed": false,
          "internalType": "string",
          "name": "title",
          "type": "string"
        },
        {
          "indexed": false,
          "internalType": "string",
          "name": "author",
          "type": "string"
        },
        {
          "indexed": false,
          "internalType": "address",
          "name": "owner",
          "type": "address"
        }
      ],
      "name": "BookRegistered",
      "type": "event"
    },
    {
      "inputs": [],
      "name": "bookCount",
      "outputs": [
        {
          "internalType": "uint256",
          "name": "",
          "type": "uint256"
        }
      ],
      "stateMutability": "view",
      "type": "function"
    },
    {
      "inputs": [
        {
          "internalType": "uint256",
          "name": "",
          "type": "uint256"
        }
      ],
      "name": "books",
      "outputs": [
        {
          "internalType": "string",
          "name": "title",
          "type": "string"
        },
        {
          "internalType": "string",
          "name": "author",
          "type": "string"
        },
        {
          "internalType": "string",
          "name": "description",
          "type": "string"
        },
        {
          "internalType": "address",
          "name": "owner",
          "type": "address"
        }
      ],
      "stateMutability": "view",
      "type": "function"
    },
    {
      "inputs": [],
      "name": "getAllBooks",
      "outputs": [
        {
          "components": [
            {
              "internalType": "string",
              "name": "title",
              "type": "string"
            },
            {
              "internalType": "string",
              "name": "author",
              "type": "string"
            },
            {
              "internalType": "string",
              "name": "description",
              "type": "string"
            },
            {
              "internalType": "address",
              "name": "owner",
              "type": "address"
            }
          ],
          "internalType": "struct BookRegistry.Book[]",
          "name": "",
          "type": "tuple[]"
        }
      ],
      "stateMutability": "view",
      "type": "function"
    },
    {
      "inputs": [
        {
          "internalType": "uint256",
          "name": "bookId",
          "type": "uint256"
        }
      ],
      "name": "getBook",
      "outputs": [
        {
          "components": [
            {
              "internalType": "string",
              "name": "title",
              "type": "string"
            },
            {
              "internalType": "string",
              "name": "author",
              "type": "string"
            },
            {
              "internalType": "string",
              "name": "description",
              "type": "string"
            },
            {
              "internalType": "address",
              "name": "owner",
              "type": "address"
            }
          ],
          "internalType": "struct BookRegistry.Book",
          "name": "",
          "type": "tuple"
        }
      ],
      "stateMutability": "view",
      "type": "function"
    },
    {
      "inputs": [
        {
          "internalType": "string",
          "name": "title",
          "type": "string"
        },
        {
          "internalType": "string",
          "name": "author",
          "type": "string"
        },
        {
          "internalType": "string",
          "name": "description",
          "type": "string"
        }
      ],
      "name": "registerBook",
      "outputs": [],
      "stateMutability": "nonpayable",
      "type": "function"
    }
  ],
  "bytecode": "0x608060405234801561001057600080fd5b50611579806100206000396000f3fe608060405234801561001057600080fd5b50600436106100575760003560e01c8063354528e81461005c57806361f2b3e91461007a5780636874404614610096578063b905ad78146100c9578063e0ff5b8b146100e7575b600080fd5b610064610117565b6040516100719190610c43565b60405180910390f35b610094600480360381019061008f9190610dae565b6103dc565b005b6100b060048036038101906100ab9190610e8b565b610597565b6040516100c09493929190610f11565b60405180910390f35b6100d161077f565b6040516100de9190610f7a565b60405180910390f35b61010160048036038101906100fc9190610e8b565b610785565b60405161010e9190611006565b60405180910390f35b6060600060015467ffffffffffffffff81111561013757610136610c83565b5b60405190808252806020026020018201604052801561017057816020015b61015d610a01565b8152602001906001900390816101555790505b50905060005b6001548110156103d4576000808281526020019081526020016000206040518060800160405290816000820180546101ad90611057565b80601f01602080910402602001604051908101604052809291908181526020018280546101d990611057565b80156102265780601f106101fb57610100808354040283529160200191610226565b820191906000526020600020905b81548152906001019060200180831161020957829003601f168201915b5050505050815260200160018201805461023f90611057565b80601f016020809104026020016040519081016040528092919081815260200182805461026b90611057565b80156102b85780601f1061028d576101008083540402835291602001916102b8565b820191906000526020600020905b81548152906001019060200180831161029b57829003601f168201915b505050505081526020016002820180546102d190611057565b80601f01602080910402602001604051908101604052809291908181526020018280546102fd90611057565b801561034a5780601f1061031f5761010080835404028352916020019161034a565b820191906000526020600020905b81548152906001019060200180831161032d57829003601f168201915b505050505081526020016003820160009054906101000a900473ffffffffffffffffffffffffffffffffffffffff1673ffffffffffffffffffffffffffffffffffffffff1673ffffffffffffffffffffffffffffffffffffffff16815250508282815181106103bc576103bb611088565b5b60200260200101819052508080600101915050610176565b508091505090565b6000835111610420576040517f08c379a000000000000000000000000000000000000000000000000000000000815260040161041790611103565b60405180910390fd5b6000825111610464576040517f08c379a000000000000000000000000000000000000000000000000000000000815260040161045b9061116f565b60405180910390fd5b60405180608001604052808481526020018381526020018281526020013373ffffffffffffffffffffffffffffffffffffffff16815250600080600154815260200190815260200160002060008201518160000190816104c4919061133b565b5060208201518160010190816104da919061133b565b5060408201518160020190816104f0919061133b565b5060608201518160030160006101000a81548173ffffffffffffffffffffffffffffffffffffffff021916908373ffffffffffffffffffffffffffffffffffffffff1602179055509050507f15d146eed19cb9f8b4dca8e2f7d87fecb39050f0fa3eb624f37e41fef57ae15c600154848433604051610572949392919061140d565b60405180910390a16001600081548092919061058d9061148f565b9190505550505050565b60006020528060005260406000206000915090508060000180546105ba90611057565b80601f01602080910402602001604051908101604052809291908181526020018280546105e690611057565b80156106335780601f1061060857610100808354040283529160200191610633565b820191906000526020600020905b81548152906001019060200180831161061657829003601f168201915b50505050509080600101805461064890611057565b80601f016020809104026020016040519081016040528092919081815260200182805461067490611057565b80156106c15780601f10610696576101008083540402835291602001916106c1565b820191906000526020600020905b8154815290600101906020018083116106a457829003601f168201915b5050505050908060020180546106d690611057565b80601f016020809104026020016040519081016040528092919081815260200182805461070290611057565b801561074f5780601f106107245761010080835404028352916020019161074f565b820191906000526020600020905b81548152906001019060200180831161073257829003601f168201915b5050505050908060030160009054906101000a900473ffffffffffffffffffffffffffffffffffffffff16905084565b60015481565b61078d610a01565b60015482106107d1576040517f08c379a00000000000000000000000000000000000000000000000000000000081526004016107c890611523565b60405180910390fd5b6000808381526020019081526020016000206040518060800160405290816000820180546107fe90611057565b80601f016020809104026020016040519081016040528092919081815260200182805461082a90611057565b80156108775780601f1061084c57610100808354040283529160200191610877565b820191906000526020600020905b81548152906001019060200180831161085a57829003601f168201915b5050505050815260200160018201805461089090611057565b80601f01602080910402602001604051908101604052809291908181526020018280546108bc90611057565b80156109095780601f106108de57610100808354040283529160200191610909565b820191906000526020600020905b8154815290600101906020018083116108ec57829003601f168201915b5050505050815260200160028201805461092290611057565b80601f016020809104026020016040519081016040528092919081815260200182805461094e90611057565b801561099b5780601f106109705761010080835404028352916020019161099b565b820191906000526020600020905b81548152906001019060200180831161097e57829003601f168201915b505050505081526020016003820160009054906101000a900473ffffffffffffffffffffffffffffffffffffffff1673ffffffffffffffffffffffffffffffffffffffff1673ffffffffffffffffffffffffffffffffffffffff16815250509050919050565b6040518060800160405280606081526020016060815260200160608152602001600073ffffffffffffffffffffffffffffffffffffffff1681525090565b600081519050919050565b600082825260208201905092915050565b6000819050602082019050919050565b600081519050919050565b600082825260208201905092915050565b60005b83811015610aa5578082015181840152602081019050610a8a565b60008484015250505050565b6000601f19601f8301169050919050565b6000610acd82610a6b565b610ad78185610a76565b9350610ae7818560208601610a87565b610af081610ab1565b840191505092915050565b600073ffffffffffffffffffffffffffffffffffffffff82169050919050565b6000610b2682610afb565b9050919050565b610b3681610b1b565b82525050565b60006080830160008301518482036000860152610b598282610ac2565b91505060208301518482036020860152610b738282610ac2565b91505060408301518482036040860152610b8d8282610ac2565b9150506060830151610ba26060860182610b2d565b508091505092915050565b6000610bb98383610b3c565b905092915050565b6000602082019050919050565b6000610bd982610a3f565b610be38185610a4a565b935083602082028501610bf585610a5b565b8060005b85811015610c315784840389528151610c128582610bad565b9450610c1d83610bc1565b925060208a01995050600181019050610bf9565b50829750879550505050505092915050565b60006020820190508181036000830152610c5d8184610bce565b905092915050565b6000604051905090565b600080fd5b600080fd5b600080fd5b600080fd5b7f4e487b7100000000000000000000000000000000000000000000000000000000600052604160045260246000fd5b610cbb82610ab1565b810181811067ffffffffffffffff82111715610cda57610cd9610c83565b5b80604052505050565b6000610ced610c65565b9050610cf98282610cb2565b919050565b600067ffffffffffffffff821115610d1957610d18610c83565b5b610d2282610ab1565b9050602081019050919050565b82818337600083830152505050565b6000610d51610d4c84610cfe565b610ce3565b905082815260208101848484011115610d6d57610d6c610c7e565b5b610d78848285610d2f565b509392505050565b600082601f830112610d9557610d94610c79565b5b8135610da5848260208601610d3e565b91505092915050565b600080600060608486031215610dc757610dc6610c6f565b5b600084013567ffffffffffffffff811115610de557610de4610c74565b5b610df186828701610d80565b935050602084013567ffffffffffffffff811115610e1257610e11610c74565b5b610e1e86828701610d80565b925050604084013567ffffffffffffffff811115610e3f57610e3e610c74565b5b610e4b86828701610d80565b9150509250925092565b6000819050919050565b610e6881610e55565b8114610e7357600080fd5b50565b600081359050610e8581610e5f565b92915050565b600060208284031215610ea157610ea0610c6f565b5b6000610eaf84828501610e76565b91505092915050565b600082825260208201905092915050565b6000610ed482610a6b565b610ede8185610eb8565b9350610eee818560208601610a87565b610ef781610ab1565b840191505092915050565b610f0b81610b1b565b82525050565b60006080820190508181036000830152610f2b8187610ec9565b90508181036020830152610f3f8186610ec9565b90508181036040830152610f538185610ec9565b9050610f626060830184610f02565b95945050505050565b610f7481610e55565b82525050565b6000602082019050610f8f6000830184610f6b565b92915050565b60006080830160008301518482036000860152610fb28282610ac2565b91505060208301518482036020860152610fcc8282610ac2565b91505060408301518482036040860152610fe68282610ac2565b9150506060830151610ffb6060860182610b2d565b508091505092915050565b600060208201905081810360008301526110208184610f95565b905092915050565b7f4e487b7100000000000000000000000000000000000000000000000000000000600052602260045260246000fd5b6000600282049050600182168061106f57607f821691505b60208210810361108257611081611028565b5b50919050565b7f4e487b7100000000000000000000000000000000000000000000000000000000600052603260045260246000fd5b7f5469746c65206973207265717569726564000000000000000000000000000000600082015250565b60006110ed601183610eb8565b91506110f8826110b7565b602082019050919050565b6000602082019050818103600083015261111c816110e0565b9050919050565b7f417574686f722069732072657175697265640000000000000000000000000000600082015250565b6000611159601283610eb8565b915061116482611123565b602082019050919050565b600060208201905081810360008301526111888161114c565b9050919050565b60008190508160005260206000209050919050565b60006020601f8301049050919050565b600082821b905092915050565b6000600883026111f17fffffffffffffffffffffffffffffffffffffffffffffffffffffffffffffffff826111b4565b6111fb86836111b4565b95508019841693508086168417925050509392505050565b6000819050919050565b600061123861123361122e84610e55565b611213565b610e55565b9050919050565b6000819050919050565b6112528361121d565b61126661125e8261123f565b8484546111c1565b825550505050565b600090565b61127b61126e565b611286818484611249565b505050565b5b818110156112aa5761129f600082611273565b60018101905061128c565b5050565b601f8211156112ef576112c08161118f565b6112c9846111a4565b810160208510156112d8578190505b6112ec6112e4856111a4565b83018261128b565b50505b505050565b600082821c905092915050565b6000611312600019846008026112f4565b1980831691505092915050565b600061132b8383611301565b9150826002028217905092915050565b61134482610a6b565b67ffffffffffffffff81111561135d5761135c610c83565b5b6113678254611057565b6113728282856112ae565b600060209050601f8311600181146113a55760008415611393578287015190505b61139d858261131f565b865550611405565b601f1984166113b38661118f565b60005b828110156113db578489015182556001820191506020850194506020810190506113b6565b868310156113f857848901516113f4601f891682611301565b8355505b6001600288020188555050505b505050505050565b60006080820190506114226000830187610f6b565b81810360208301526114348186610ec9565b905081810360408301526114488185610ec9565b90506114576060830184610f02565b95945050505050565b7f4e487b7100000000000000000000000000000000000000000000000000000000600052601160045260246000fd5b600061149a82610e55565b91507fffffffffffffffffffffffffffffffffffffffffffffffffffffffffffffffff82036114cc576114cb611460565b5b600182019050919050565b7f426f6f6b20646f6573206e6f7420657869737400000000000000000000000000600082015250565b600061150d601383610eb8565b9150611518826114d7565b602082019050919050565b6000602082019050818103600083015261153c81611500565b905091905056fea2646970667358221220948f8744f31723a9be19d6d9eb074cf46c3af714f71f883499efdcd73b6f0c3364736f6c63430008180033",
  "linkReferences": {},
  "deployedLinkReferences": {}
}